:100000000C942A000C9434000C9434000C943400AA
:100010000C9434000C9434000C9434000C94340090
:100020000C9434000C9434000C9434000C94340080
:100030000C9434000C9434000C9434000C94340070
:100040000C9434000C9434000C9434000C94340060
:100050000C94340011241FBECFE5D8E0DEBFCDBF25
:100060000E9436000C9470000C94000081B3806FE5
:1000700081BB889910C082B3806282BB88EC01C0CA
:1000800081508111FDCF82B38F7D82BB88EC01C08E
:1000900081508111FDCF899910C082B3806482BBE9
:1000A00088EC01C081508111FDCF82B38F7B82BB70
:1000B00088EC01C081508111FDCF8A99DACF82B3DB
:1000C000806882BB88EC01C081508111FDCF82B372
:1000D0008F7782BB88EC01C081508111FDCFC9CFE1
:0400E000F894FFCFC2
:00000001FF
