:020000040800F2
:1000000000280020F1020008410300084103000815
:1000100041030008410300084103000800000000FC
:100020000000000000000000000000004103000884
:1000300041030008000000004103000841030008DC
:100040004103000841030008410300084103000880
:100050004103000841030008410300084103000870
:100060004103000841030008410300084103000860
:100070004103000841030008410300084103000850
:100080004103000841030008410300084103000840
:100090004103000841030008410300084103000830
:1000A0004103000841030008410300084103000820
:1000B0004103000841030008410300084103000810
:1000C0004103000841030008410300084103000800
:1000D00041030008410300084103000841030008F0
:1000E000410300084103000800000000410300082C
:1000F00041030008410300084103000841030008D0
:1001000041030008410300084103000841030008BF
:1001100041030008410300084103000841030008AF
:10012000410300084103000841030008410300089F
:1001300010B5054C237833B9044B13B10448AFF321
:1001400000800123237010BD1C000020000000006F
:100150008C03000808B5034B1BB103490348AFF3F8
:10016000008008BD00000000200000208C03000873
:1001700080B400AF1E4B1A6813686FF30513136049
:100180001B4B1A681368012161F387131360194B25
:100190001A6813686FF315531360164B1A681368C7
:1001A000012161F397531360134B1A6813680221FE
:1001B00061F305131360104B1A6813686FF387130C
:1001C00013600E4B1A681368022161F31553136014
:1001D0000A4B1A6813686FF397531360084B1B6838
:1001E0004FF0FF321A6000BFBD4680BC704700BFB1
:1001F000040000200800002010000020140000204F
:100200001800002080B400AF074B1A68138843F031
:1002100004031380044B1A68138843F00803138007
:1002200000BFBD4680BC70470000002080B485B090
:1002300000AF78600023FB600BE00023BB6002E0AE
:10024000BB680133BB60BB68FE2BF9D9FB68013387
:10025000FB607B68FA689A42EFD300BF1437BD4653
:1002600080BC704780B500AFFFF7CCFFFFF780FF81
:100270001D4B1B681B68C3F34003DBB2002B17D177
:100280001A4B1B681B68C3F34003DBB2174A1268A2
:1002900083F00103D9B2138861F34103138000BFD7
:1002A000114B1B681B68C3F34003DBB2002BF7D074
:1002B0000D4B1B681B68C3F34033DBB2012BD7D156
:1002C0000A4B1B681B68C3F34033DBB2074A126852
:1002D00083F00103D9B2138861F34D3313800120F9
:1002E000FFF7A4FFC4E700BF0C00002018000020A7
:1002F0000D488546AFF300800C480D490D4A002398
:1003000002E0D458C4500433C4188C42F9D30A4ACA
:100310000A4C002301E013600432A242FBD300F038
:1003200011F8FFF79FFFFEE70028002000000020E3
:100330001C000020AC0300081C0000203800002036
:10034000FEE7000070B500250C4E0D4CA41BA41058
:10035000A54209D100F01AF800250A4E0A4CA41B48
:10036000A410A54205D170BD56F825309847013537
:10037000EEE756F8253098470135F2E7A403000868
:10038000A4030008A4030008A8030008F8B500BFF0
:10039000F8BC08BC9E467047F8B500BFF8BC08BC66
:0403A0009E467047BE
:0403A40055010008F7
:0403A8003101000817
:1003AC0018100240000801400408014008080140F0
:0C03BC00000C0140040C01400C0C01403E
:04000005080002F1FC
:00000001FF
