S01B00006770696F5F73656374696F6E315F7461736B312E7372656392
S11300000C942A000C9434000C9434000C943400A6
S11300100C9434000C9434000C9434000C9434008C
S11300200C9434000C9434000C9434000C9434007C
S11300300C9434000C9434000C9434000C9434006C
S11300400C9434000C9434000C9434000C9434005C
S11300500C94340011241FBECFE5D8E0DEBFCDBF21
S11300600E9436000C945B000C9400008DE08ABB67
S113007084B38E7F84BB85B3816085BB80E098990F
S113008017C0813051F018F0823069F011C02BB3E1
S113009091E092279BBB8F5F0BC02BB394E0922718
S11300A09BBB8F5F05C09BB388E089278BBB80E037
S10D00B0989BFECFE4CFF894FFCF35
S9030000FC
